:020000040800F2
:100000002009002001010008C1040008B502000811
:10001000BD04000891010008270C00080000000042
:10002000000000000000000000000000FD080008C3
:1000300095010008000000004D070008010A0008B3
:100040001701000817010008170100081701000830
:100050001701000817010008170100081701000820
:100060001701000817010008170100081701000810
:100070001701000817010008170100081701000800
:1000800017010008170100081701000817010008F0
:1000900017010008170100081701000817010008E0
:1000A00017010008170100081701000817010008D0
:1000B00017010008170100081701000817010008C0
:1000C00017010008170100081701000817010008B0
:1000D00017010008050A00081701000817010008A9
:1000E000170100081701000817010008DFF80CD0FD
:1000F00000F03CF800480047F50E000820090020F9
:1001000005480047FEE7FEE7FEE7FEE7FEE7FEE7FD
:10011000FEE7FEE7FEE7FEE7ED000008D2B201E0F1
:1001200000F8012B491EFBD270470022F6E710B5FC
:1001300013460A4604461946FFF7F0FF204610BD55
:1001400030B50B46014600202022012409E021FAA7
:1001500002F59D4205D303FA02F5491B04FA02F5A4
:100160002844151EA2F10102F1DC30BD064C074DFA
:1001700006E0E06840F0010394E807009847103477
:10018000AC42F6D3FFF7B6FF4C1200086C12000821
:1001900000BFFEE770472DE9F0410246002500262A
:1001A000002000230024002791F803C00CF00F0565
:1001B00091F803C00CF0100CBCF1000F03D091F8C3
:1001C00002C04CEA050591F800C0BCF1000F31D027
:1001D000146800202BE04FF0010C0CFA00F3B1F88A
:1001E00000C00CEA03069E4220D183004FF00F0CA2
:1001F0000CFA03F7BC4305FA03FC4CEA040491F83B
:1002000003C0BCF1280F06D14FF0010C0CFA00FC22
:10021000C2F814C00AE091F803C0BCF1480F05D140
:100220004FF0010C0CFA00FCC2F810C0401C08286A
:10023000D1D31460B1F800C0BCF1FF0F34DD5468B5
:1002400000202EE000F1080C4FF0010808FA0CF332
:10025000B1F800C00CEA03069E4221D183004FF0A2
:100260000F0C0CFA03F7BC4305FA03FC4CEA040438
:1002700091F803C0BCF1280F05D100F1080C08FA71
:100280000CF8C2F8148091F803C0BCF1480F07D1F4
:1002900000F1080C4FF0010808FA0CF8C2F81080C1
:1002A000401C0828CED35460BDE8F08141617047FE
:1002B0000161704700BFFEE770B5002400250026ED
:1002C00000201E4908601E48006820F070401C494C
:1002D00008600846006840F000400860042000F014
:1002E0008BFD00BF18E0012014490860032000F0D6
:1002F00083FD00261348D0F81C0108B1012600E058
:10030000002646EA4400C4B200200C4908600320DD
:1003100000F072FD681CC5B2082DE4DB08480068D7
:1003200020F07040064908600846006840F0004030
:1003300008600A2000F060FD204670BD98812142CF
:10034000000C01400080214210B51348006820F0E5
:100350007040114908600846006840F0405008604D
:1003600001200E490860042000F046FD01200C49E0
:10037000C1F89C01042000F03FFD00200749091D41
:100380000860042000F038FD00200549C1F89801FC
:10039000042000F031FD10BD000C01409881214285
:1003A0000080214210B50F48006820F070400D49D0
:1003B00008600846006840F04050086000200A4984
:1003C0000860042000F018FD01200849C1F89801D8
:1003D000042000F011FD012003490860042000F012
:1003E0000BFD10BD000C01409C8121420080214288
:1003F00070B504461F48006820F070401D49086031
:100400000846006840F04050086000251BE00020CE
:1004100019490860052000F0EFFC04F0800020B1CD
:1004200001201549091D086003E000201249091D3B
:100430000860012010490860052000F0DDFC60061E
:10044000040E681CC5B2082DE1DB00200A490860D3
:10045000042000F0F7FC0748006820F070400549D0
:1004600008600846006840F000400860042000F082
:10047000E9FC70BD000C01409881214208B50121C2
:10048000082000F065F9C020ADF8000010208DF8BC
:10049000030003208DF8020069460548FFF77BFE44
:1004A0000120044908600449C1F89C0108BD00000E
:1004B000000C0140988121420080214200BFFEE7EC
:1004C000704710B54FF4A06000F03AF810BD00007E
:1004D00070B5002100230F22C47804B3154C2468A2
:1004E00004F4E064C4F5E064210AC1F10403CA40E5
:1004F000447804FA03F184781440214309010E4C36
:100500000678A155047804F01F050124AC40057855
:100510006D11AD0005F1E025C5F8004109E0047852
:1005200004F01F050124AC40044D0678761145F80F
:10053000264070BD0CED00E000E400E080E100E04A
:1005400002490143024A1160704700000000FA05A9
:100550000CED00E010B5044634B1FF224FF4806189
:100560000548FFF7DBFD04E04FF480610248FFF728
:10057000DCFD00F003F810BD1C01002070B5002464
:100580001BE004F1B000002100F0C0F80021084693
:1005900000F0BCF80021102000F0B8F8002508E0B9
:1005A00005EBC411064A505C012100F0AFF8681C4D
:1005B000C5B2802DF4DB601CC4B2082CE1DB70BD39
:1005C0001C01002010B500F06BF8C82000F014FCEE
:1005D00000F082F80021AE2000F098F800210846D3
:1005E00000F094F80021102000F090F80021402045
:1005F00000F08CF80021B02000F088F80021812064
:1006000000F084F80021FF2000F080F80021A120F4
:1006100000F07CF80021A62000F078F80021A82046
:1006200000F074F800213F2000F070F80021C8208D
:1006300000F06CF80021D32000F068F80021084693
:1006400000F064F80021D52000F060F8002180203F
:1006500000F05CF80021D92000F058F80021F120CA
:1006600000F054F80021DA2000F050F800211220A8
:1006700000F04CF80021DB2000F048F80021302089
:1006800000F044F800218D2000F040F800211420F3
:1006900000F03CF80021AF2000F038F810BD000059
:1006A00008B50121082000F053F84FF43C40ADF8A4
:1006B000000010208DF8030003208DF80200694629
:1006C0000448FFF768FD4FF43C410248FFF7F0FD96
:1006D00008BD0000000C014010B54FF480510A48DD
:1006E000FFF7E6FD642000F087FB4FF480510648D9
:1006F000FFF7DCFD642000F07FFB4FF480510248DF
:10070000FFF7D6FD10BD0000000C014070B5044697
:100710000D462DB14FF480610B48FFF7C9FD04E091
:100720004FF480610848FFF7C1FD4FF400610648AF
:10073000FFF7BCFDE0B200F0BBF84FF400610248E7
:10074000FFF7B6FD70BD0000000C014070470000CF
:1007500029B1064A92690243044B9A6104E0034AB4
:1007600092698243014B9A61704700000010024079
:1007700030B500210022002400232D4D6D6805F0C6
:100780000C0121B1042905D0082923D105E0294D08
:10079000056022E0274D05601FE0254D6D6805F4DA
:1007A0007012234D6D6805F48034022505EB9242EA
:1007B0001CB9214D554305600BE01D4D6D6805F4D6
:1007C00000351DB11C4D5543056002E0194D5543E0
:1007D000056002E0174D056000BF00BF144D6D6855
:1007E00005F0F0010909154D6B5C0568DD404560B9
:1007F0000F4D6D6805F4E061090A104D6B5C4568AA
:10080000DD4085600A4D6D6805F46051C90A0B4DE5
:100810006B5C4568DD40C560054D6D6805F4404181
:10082000890B074D6B5CC568B5FBF3F5056130BD01
:100830000010024000127A0000093D001400002060
:100840002400002070B50025002400201549086010
:100850001548006820F07040134908600846006899
:1008600040F000400860042000F0ECFA01200F493D
:10087000C1F89801042000F0E5FA01E0601CC4B260
:1008800008487C38006808B1642CF7DB0020054973
:100890000860042000F0D6FA642C00DA012528460E
:1008A00070BD000098812142000C0140008021426F
:1008B00070B50446002508251BE004F0800028B12F
:1008C0004FF400410C48FFF7F3FC04E04FF4004103
:1008D0000948FFF7EBFC4FF400510748FFF7E6FC2F
:1008E0004FF400510448FFF7E3FC6006040E681E55
:1008F000C5B2002DE1DC70BD000C01407047000066
:1009000010B51648006820F0704014490860084689
:10091000006840F040500860002011490860042041
:1009200000F090FA01200F49C1F89C01042000F06A
:1009300089FA01200A490860042000F083FA0020A7
:100940000849C1F89801042000F07CFA002004490D
:10095000091D0860042000F075FA10BD000C01406C
:10096000988121420080214210B51848006820F08B
:100970007040164908600846006840F04050086022
:10098000002013490860042000F05CFA002011499F
:10099000C1F89C01042000F055FA01200C490860C0
:1009A000042000F04FFA00200A49C1F89801042001
:1009B00000F048FA0548006820F0704003490860DC
:1009C0000846006840F00040086010BD000C01407F
:1009D0009881214200802142042808D14FF0E02173
:1009E000096941F004014FF0E022116107E04FF086
:1009F000E021096921F004014FF0E0221161704704
:100A00007047000010B540F225511D4800F04AF82B
:100A100010B31B4800F002F9C4B21A48008800F471
:100A20000040C8B91748008800F4804060B10A2C23
:100A300003D000201349088020E01248008840F4C9
:100A400000401049088019E00D2C06D10D4800889F
:100A500040F480400B49088010E00A480088C0F349
:100A60000D0009490C5407480088401C05490880BE
:100A700008460088C72801DD0020088010BD00005E
:100A800000380140500000205400002021B182892C
:100A900042F40052828104E082894DF6FF731A40CD
:100AA0008281704770B50246002400230025002093
:100AB00040F66A16B14200D100BFC1F3421501F001
:100AC0001F03012606FA03F3012D02D19689334054
:100AD00006E0022D02D1168A334001E0968A3340A7
:100AE0000C12012606FA04F41688344013B10CB136
:100AF000012000E0002070BDF0B503460024002670
:100B00000025002040F66A17B94200D100BF184600
:100B1000C1F3421401F01F06012707FA06F5012C64
:100B200001D10C3004E0022C01D1103000E014306F
:100B30001AB107682F43076002E00768AF430760F8
:100B4000F0BD00002DE9F04786B005460E460024B2
:100B5000A24600BFA1460027B08900B100BF2F46C2
:100B60002C8A4CF6FF700440F08804432C82AC8938
:100B70004EF6F3100440B088318908437189084368
:100B80000443AC81AC8A4FF6FF400440B089044373
:100B9000AC8201A8FFF7ECFD1F48874202D1DDF8C7
:100BA00010A001E0DDF80CA0A88900F4004040B1DD
:100BB0000AEBCA0000EB0A1031684900B0FBF1F8FB
:100BC00007E00AEBCA0000EB0A1031688900B0FBAD
:100BD000F1F86420B8FBF0F004012009642101FB66
:100BE0001089A88900F4004040B1322000EBC90010
:100BF000B0FBF1F000F00700044308E0322000EB06
:100C000009106421B0FBF1F000F00F0004432C81C7
:100C100006B0BDE8F0870000003801400146888832
:100C2000C0F30800704700BFFEE700000FB4054B9B
:100C300010B503A9044A029800F018F810BC5DF83A
:100C400014FB0000910E00084C00002002E008C8D0
:100C5000121F08C1002AFAD170477047002001E036
:100C600001C1121F002AFBD1704700002DE9FF4F80
:100C700089B09B460446002506E025280BD05A463D
:100C80000B999047641C6D1C20780028F5D10DB09D
:100C90002846BDE8F08F0027B8460122474900E00A
:100CA000074314F8013F203B02FA03F00842F7D152
:100CB00020782E2819D114F8010F47F004072A28AC
:100CC0000ED06FF02F022078A0F1300109290CD846
:100CD00008EB880102EB410100EB0108641CF2E71C
:100CE0000A98641C50F8048B0A9020780028CED013
:100CF000642808D0692806D075281ED05A460B995A
:100D000090476D1C58E00A994FF00A0901C90A91F1
:100D1000002802DA40422D2102E0390504D52B21BA
:100D20008DF82010012103E0F90704D02021F7E716
:100D30008A4608AE0DE00021FAE70A994FF00A0949
:100D400001C90A91F7E74946FFF7FAF9303106F889
:100D5000011D0028F7D1ADEB060000F1200978074E
:100D600001D44FF00108C84502DDA8EB090000E0FE
:100D700000208046002706E008A85A46C05D0B996F
:100D800090476D1C7F1C5745F6DB04E030205A4627
:100D90000B9990476D1CB8F10001A8F10108F5DC32
:100DA00005E016F8010B5A460B9990476D1CB9F1F6
:100DB0000001A9F10109F4DC641C65E709280100C0
:100DC00010B56FF00400FFF707FE084800684FF405
:100DD0004871B0FBF1F0064908700846007800EB56
:100DE000800040000349088010BD00000000002082
:100DF00046000020480000200146114A12884A435C
:100E00004FF0E0235A6100229A611A46126942F0BB
:100E100001021A6100BF4FF0E022106900F00102E8
:100E20001AB100F48032002AF5D04FF0E0221269A6
:100E300022F001024FF0E0231A6100229A6170470C
:100E4000480000200146114A12784A434FF0E0233F
:100E50005A6100229A611A46126942F001021A612F
:100E600000BF4FF0E022106900F001021AB100F457
:100E70008032002AF5D04FF0E022126922F0010200
:100E80004FF0E0231A6100229A617047460000206B
:100E900000BF054A128802F04002002AF9D0C2B20F
:100EA000014B1B1D1A8070470038014010B5FFF739
:100EB0004BFA7020FFF79CFAFFF7C4FC0C4908704E
:100EC000E120FFF795FAFFF7BDFC094908700820FB
:100ED000FFF78EFAFFF7B6FC054908700020FFF710
:100EE00087FAFFF7AFFC02490870FFF75BFA10BD05
:100EF00028000020FFF764FFFFF7E3FAFFF762FB2B
:100F00000020FFF727FB4FF4E13000F04FF9FFF727
:100F1000B5FA04E000F0F6F83220FFF76DFFF9E7CC
:100F20002DE9F041002404E0002067490855601CC9
:100F3000C4B2062CF8DBFFF707FA7120FFF758FA66
:100F4000FFF780FC61490870FFF7B6F95E49087049
:100F5000FFF70AFDFFF7B0F95B494870FFF704FDA2
:100F6000FFF7AAF958498870FFF7FEFCFFF7A4F9CC
:100F70005549C870FFF7F8FCFFF79EF95249087110
:100F8000FFF7F2FCFFF798F94F494871FFF7B8FCFB
:100F9000FFF708FA4C48007800F0680008284ED1A6
:100FA000494840784A49086047488078096840EADB
:100FB0000120474908604448C078096840EA012098
:100FC0004349086008460068000908600846006850
:100FD0004FF47A714843000D3D4908603A48C078A3
:100FE0003C4908600846007800F00F000860364869
:100FF0000079096840EA01203649086032484079A2
:10100000096840EA012033490860084600684FF447
:10101000FA6148438910C1EB10502E4908602C48F2
:101020000088000A2C49087029480078487029482F
:101030000088000A887027480078C87008E0FF2000
:101040002549087048708870C87024A0FFF7EEFD2D
:1010500023A0FFF7EBFD1F4800680A21B0FBF1F267
:1010600001FB12051B480068B0FBF1F0B0FBF1F288
:1010700001FB1206174800686421B0FBF1F72B460C
:101080003246394617A0FFF7D1FD114800680A2102
:10109000B0FBF1F201FB12050D480068B0FBF1F066
:1010A000B0FBF1F201FB1206094800686421B0FBB5
:1010B000F1F72B46324639460EA0FFF7B7FD08A0E0
:1010C000FFF7B4FDBDE8F0812900002028000020D2
:1010D0003000002034000020380000206C797900B6
:1010E0000D0A0000CEC2B6C83A256425642E2564D8
:1010F00000000000CAAAB6C83A256425642E2564FB
:101100000000000010B50A20FFF776FE00F014F88A
:101110000A20FFF771FEFFF7C9FE0A20FFF76CFEF9
:1011200000F020F85020FFF767FEFFF7F9FE0520DA
:10113000FFF762FE10BD000010B5FFF705F9702043
:10114000FFF756F9FFF77EFB05490870BA20FFF755
:101150004FF9FFF777FB02490870FFF723F910BD3D
:101160002800002010B5FFF7EFF87020FFF740F9D6
:10117000FFF768FB0C490870AC20FFF739F9FFF75F
:1011800061FB094908703320FFF732F9FFF75AFB7A
:10119000054908700020FFF72BF9FFF753FB0249C0
:1011A0000870FFF7FFF810BD2800002010B586B0CA
:1011B0000446012144F20400FFF7CAFA4FF400701C
:1011C000ADF8140003208DF8160018208DF81700D4
:1011D00005A91C48FEF7DFFF4FF48060ADF814004E
:1011E00004208DF8170005A91648FEF7D4FF252026
:1011F0008DF8000003208DF801008DF80200012019
:101200008DF803006846FFF763F901940020ADF8FC
:101210000800ADF80A00ADF80C00ADF810000C2085
:10122000ADF80E0001A90848FFF78CFC012240F23E
:1012300025510548FFF760FC01210348FFF726FC14
:1012400006B010BD00080140003801406C120008D3
:1012500000000020540000004C0C0008C0120008E0
:1012600054000020CC0800005C0C000800A24A04D6
:101270000000000000000000010203040607080946
:10128000000000000102030401020304060708092C
:10129000020406080000000000000000000000003A
:1012A0000000000000000000FA060A000000000034
:1012B00000FF00000000000000000000000000002F
:04000005080000ED02
:00000001FF
