:020000040800F2
:100000002009002001010008BD060008B104000815
:10001000B906000865010008A30E000800000000F2
:10002000000000000000000000000000790B000844
:100030006901000800000000C90900087D0C0008E3
:100040001701000817010008170100081701000830
:100050001701000817010008170100081701000820
:100060001701000817010008170100081701000810
:100070001701000817010008170100081701000800
:1000800017010008170100081701000817010008F0
:1000900017010008170100081701000817010008E0
:1000A00017010008170100081701000817010008D0
:1000B00017010008170100081701000817010008C0
:1000C00017010008170100081701000817010008B0
:1000D00017010008810C000817010008170100082B
:1000E000170100081701000817010008DFF80CD0FD
:1000F00000F026F8004800472D10000820090020D5
:1001000005480047FEE7FEE7FEE7FEE7FEE7FEE7FD
:10011000FEE7FEE7FEE7FEE7ED000008D2B201E0F1
:1001200000F8012B491EFBD270470022F6E710B5FC
:1001300013460A4604461946FFF7F0FF204610BD55
:10014000064C074D06E0E06840F0010394E8070024
:1001500098471034AC42F6D3FFF7CCFF5C27000879
:100160007C27000800BFFEE770472DE9F0410246FA
:1001700000250026002000230024002791F803C05A
:100180000CF00F0591F803C00CF0100CBCF1000F3F
:1001900003D091F802C04CEA050591F800C0BCF10B
:1001A000000F31D0146800202BE04FF0010C0CFA46
:1001B00000F3B1F800C00CEA03069E4220D1830090
:1001C0004FF00F0C0CFA03F7BC4305FA03FC4CEAA2
:1001D000040491F803C0BCF1280F06D14FF0010CC4
:1001E0000CFA00FCC2F814C00AE091F803C0BCF19C
:1001F000480F05D14FF0010C0CFA00FCC2F810C0FA
:10020000401C0828D1D31460B1F800C0BCF1FF0F26
:1002100034DD546800202EE000F1080C4FF0010896
:1002200008FA0CF3B1F800C00CEA03069E4221D193
:1002300083004FF00F0C0CFA03F7BC4305FA03FCE4
:100240004CEA040491F803C0BCF1280F05D100F179
:10025000080C08FA0CF8C2F8148091F803C0BCF13D
:10026000480F07D100F1080C4FF0010808FA0CF80C
:10027000C2F81080401C0828CED35460BDE8F0813D
:1002800041617047016170472DE9F84F06460F46FE
:1002900092469946DDF828B04FF00008002400256A
:1002A000AAF1200000F0FF087F2E02DD0026B81C16
:1002B000C7B2B9F1100F30D100242BE0BBF1000F11
:1002C00005D004EB08103249085C009006E004EB0E
:1002D00008102F49085CC043C0B20090002515E00B
:1002E000802028410099084038B13A19D1B27219DA
:1002F000D0B2012200F008FB06E03A19D1B272191F
:10030000D0B2002200F000FB681CC5B2082DE7DB6C
:10031000601CC4B2102CD1DB35E0B9F1080F30D12C
:1003200000242BE0BBF1000F05D01A4800EBC800F9
:10033000005D009006E0174800EBC800005DC04378
:10034000C0B20090002515E08020284100990840A7
:1003500038B13A19D1B27219D0B2012200F0D4FAF0
:1003600006E03A19D1B27219D0B2002200F0CCFAEC
:10037000681CC5B2082DE7DB601CC4B2082CD1DBB9
:1003800001E0BDE8F88F00F0F7F900BFF9E70000E1
:10039000641600086C1300082DE9FF4F83B08046F7
:1003A00092461E46DDE9104B00200290102C05D12C
:1003B000204604EBD071C1F347070BE0082C06D1AF
:1003C000204604EBD0714910891CCFB202E007B07F
:1003D000BDE8F08F002530E0701B401EC1B20A203E
:1003E00000F03AFEBAFBF0F00A21B0FBF1F201FB9B
:1003F0001209029890B9701EA8420FDDB9F1000FE2
:100400000AD107FB0581C8B223462022CDF800B0EF
:100410000499FFF739FF0EE00120029009F1300145
:10042000CAB207FB0581C8B22346CDF800B00499D3
:10043000FFF72AFF00BF681CC5B2B542CCDB00BF86
:10044000C5E72DE9F84F0546894616461C46DDF8F6
:1004500028A00027102C05D1204604EBD071C1F351
:1004600047080BE0082C07D1204604EBD071491057
:10047000891C01F0FF0801E0BDE8F88F13E0CDF81A
:1004800000A0F25D234649462846FFF7FDFE05EB36
:100490000800C5B2782D04DD002509EB040000F04A
:1004A000FF09781CC7B2F05D0028E8D100BFE3E780
:1004B00000BFFEE770B500240025002600201E497D
:1004C00008601E48006820F070401C49086008461B
:1004D000006840F000400860042000F029FD00BFE3
:1004E00018E0012014490860032000F021FD0026D7
:1004F0001348D0F81C0108B1012600E0002646EAA6
:100500004400C4B200200C490860032000F010FD34
:10051000681CC5B2082DE4DB0848006820F0704074
:10052000064908600846006840F0004008600A205C
:1005300000F0FEFC204670BD98812142000C014075
:100540000080214210B51348006820F07040114926
:1005500008600846006840F04050086001200E49DD
:100560000860042000F0E4FC01200C49C1F89C0163
:10057000042000F0DDFC00200749091D086004206C
:1005800000F0D6FC00200549C1F89801042000F0D5
:10059000CFFC10BD000C0140988121420080214217
:1005A00010B50F48006820F070400D4908600846FB
:1005B000006840F04050086000200A4908600420AC
:1005C00000F0B6FC01200849C1F89801042000F0B1
:1005D000AFFC012003490860042000F0A9FC10BD15
:1005E000000C01409C8121420080214270B50446EC
:1005F0001F48006820F070401D49086008460068E8
:1006000040F04050086000251BE0002019490860B8
:10061000052000F08DFC04F0800020B10120154978
:10062000091D086003E000201249091D086001202F
:1006300010490860052000F07BFC6006040E681C71
:10064000C5B2082DE1DB00200A490860042000F053
:1006500095FC0748006820F070400549086008468E
:10066000006840F000400860042000F087FC70BD86
:10067000000C01409881214208B50121082000F0BA
:10068000A5F9C020ADF8000010208DF8030003206C
:100690008DF8020069460548FFF767FD012004490F
:1006A00008600449C1F89C0108BD0000000C01402D
:1006B000988121420080214200BFFEE7704710B5BB
:1006C0004FF4A06000F03AF810BD000070B50021B2
:1006D00000230F22C47804B3154C246804F4E064AA
:1006E000C4F5E064210AC1F10403CA40447804FA65
:1006F00003F184781440214309010E4C0678A1557A
:10070000047804F01F050124AC4005786D11AD009C
:1007100005F1E025C5F8004109E0047804F01F0563
:100720000124AC40044D0678761145F8264070BD92
:100730000CED00E000E400E080E100E0024901434C
:10074000024A1160704700000000FA050CED00E05D
:1007500010B5044634B1FF224FF480610548FFF71D
:10076000DDFC04E04FF480610248FFF7DEFC00F09E
:1007700003F810BD1C01002070B500241BE004F13B
:10078000B000002100F000F90021084600F0FCF85C
:100790000021102000F0F8F8002508E005EBC41156
:1007A000064A505C012100F0EFF8681CC5B2802DAC
:1007B000F4DB601CC4B2082CE1DB70BD1C0100201E
:1007C00010B500F06BF8C82000F0B2FB00F082F822
:1007D0000021AE2000F0D8F80021084600F0D4F83F
:1007E0000021102000F0D0F80021402000F0CCF8CB
:1007F0000021B02000F0C8F80021812000F0C4F8EA
:100800000021FF2000F0C0F80021A12000F0BCF87A
:100810000021A62000F0B8F80021A82000F0B4F8CC
:1008200000213F2000F0B0F80021C82000F0ACF813
:100830000021D32000F0A8F80021084600F0A4F819
:100840000021D52000F0A0F80021802000F09CF8C5
:100850000021D92000F098F80021F12000F094F850
:100860000021DA2000F090F80021122000F08CF82E
:100870000021DB2000F088F80021302000F084F80F
:1008800000218D2000F080F80021142000F07CF879
:100890000021AF2000F078F810BD000008B501215C
:1008A000082000F093F84FF43C40ADF80000102011
:1008B0008DF8030003208DF8020069460448FFF715
:1008C00054FC4FF43C410248FFF7DCFC08BD00003B
:1008D000000C014010B54FF480510A48FFF7D2FCDC
:1008E000642000F025FB4FF480510648FFF7C8FC58
:1008F000642000F01DFB4FF480510248FFF7C2FC5A
:1009000010BD0000000C0140F0B503461446E4B1F0
:10091000CD1701EB5575ED1003EBC515194E755D3F
:100920000A46CE1701EB5676F610A1EBC607012654
:10093000BE40F6B235430846CE1701EB5676F610A8
:1009400003EBC6160F4FBD551AE0CD1701EB5575D9
:10095000ED1003EBC5150B4E755D0A46CE1701EB86
:100960005676F610A1EBC6070126BE40B5430846F1
:10097000CE1701EB5676F61003EBC616014FBD55A8
:10098000F0BD00001C01002070B504460D462DB1DD
:100990004FF480610B48FFF775FC04E04FF4806171
:1009A0000848FFF76DFC4FF400610648FFF768FC4C
:1009B000E0B200F0BBF84FF400610248FFF762FCC0
:1009C00070BD0000000C01407047000029B1064ACC
:1009D00092690243044B9A6104E0034A926982439C
:1009E000014B9A61704700000010024030B50021B1
:1009F0000022002400232D4D6D6805F00C0121B16B
:100A0000042905D0082923D105E0294D056022E0FD
:100A1000274D05601FE0254D6D6805F47012234DCC
:100A20006D6805F48034022505EB92421CB9214D16
:100A3000554305600BE01D4D6D6805F400351DB193
:100A40001C4D5543056002E0194D5543056002E019
:100A5000174D056000BF00BF144D6D6805F0F00133
:100A60000909154D6B5C0568DD4045600F4D6D68EB
:100A700005F4E061090A104D6B5C4568DD40856056
:100A80000A4D6D6805F46051C90A0B4D6B5C4568F1
:100A9000DD40C560054D6D6805F44041890B074D8B
:100AA0006B5CC568B5FBF3F5056130BD0010024015
:100AB00000127A0000093D001400002024000020EC
:100AC00070B500250024002015490860154800680D
:100AD00020F07040134908600846006840F000406C
:100AE0000860042000F04AFA01200F49C1F898017B
:100AF000042000F043FA01E0601CC4B208487C38CE
:100B0000006808B1642CF7DB002005490860042068
:100B100000F034FA642C00DA0125284670BD00008C
:100B200098812142000C01400080214270B50446AA
:100B3000002508251BE004F0800028B14FF4004197
:100B40000C48FFF79FFB04E04FF400410948FFF712
:100B500097FB4FF400510748FFF792FB4FF4005109
:100B60000448FFF78FFB6006040E681EC5B2002D17
:100B7000E1DC70BD000C01407047000010B5164864
:100B8000006820F07040144908600846006840F092
:100B900040500860002011490860042000F0EEF980
:100BA00001200F49C1F89C01042000F0E7F9012061
:100BB0000A490860042000F0E1F900200849C1F862
:100BC0009801042000F0DAF900200449091D0860AA
:100BD000042000F0D3F910BD000C0140988121429F
:100BE0000080214210B51848006820F07040164976
:100BF00008600846006840F0405008600020134933
:100C00000860042000F0BAF900201149C1F89C01E5
:100C1000042000F0B3F901200C490860042000F022
:100C2000ADF900200A49C1F89801042000F0A6F9A6
:100C30000548006820F070400349086008460068D5
:100C400040F00040086010BD000C01409881214236
:100C500000802142042808D14FF0E021096941F0C9
:100C600004014FF0E022116107E04FF0E021096933
:100C700021F004014FF0E02211617047704700003D
:100C800010B540F225511D4800F04AF810B31B483A
:100C900000F002F9C4B21A48008800F40040C8B954
:100CA0001748008800F4804060B10A2C03D000206F
:100CB0001349088020E01248008840F400401049A1
:100CC000088019E00D2C06D10D48008840F48040C2
:100CD0000B49088010E00A480088C0F30D0009495C
:100CE0000C5407480088401C0549088008460088C5
:100CF000C72801DD0020088010BD00000038014039
:100D0000500000205400002021B1828942F400529A
:100D1000828104E082894DF6FF731A408281704718
:100D200070B50246002400230025002040F66A1614
:100D3000B14200D100BFC1F3421501F01F030126EB
:100D400006FA03F3012D02D19689334006E0022D05
:100D500002D1168A334001E0968A33400C120126F4
:100D600006FA04F41688344013B10CB1012000E0F7
:100D7000002070BDF0B503460024002600250020A9
:100D800040F66A17B94200D100BF1846C1F34214B9
:100D900001F01F06012707FA06F5012C01D10C30DE
:100DA00004E0022C01D1103000E014301AB10768C1
:100DB0002F43076002E00768AF430760F0BD000003
:100DC0002DE9F04786B005460E460024A24600BF36
:100DD000A1460027B08900B100BF2F462C8A4CF6EF
:100DE000FF700440F08804432C82AC894EF6F31067
:100DF0000440B08831890843718908430443AC81B9
:100E0000AC8A4FF6FF400440B0890443AC8201A88D
:100E1000FFF7ECFD1F48874202D1DDF810A001E08A
:100E2000DDF80CA0A88900F4004040B10AEBCA002C
:100E300000EB0A1031684900B0FBF1F807E00AEB5B
:100E4000CA0000EB0A1031688900B0FBF1F8642099
:100E5000B8FBF0F004012009642101FB1089A88986
:100E600000F4004040B1322000EBC900B0FBF1F0CB
:100E700000F00700044308E0322000EB0910642171
:100E8000B0FBF1F000F00F0004432C8106B0BDE888
:100E9000F08700000038014001468888C0F3080050
:100EA000704700BFFEE70000014A024900F013B896
:100EB000C90F00084C00002002E008C8121F08C13A
:100EC000002AFAD170477047002001E001C1121FCB
:100ED000002AFBD170472DE9F04116460F46044623
:100EE000002503E03946B047641C6D1C20780028BB
:100EF000F8D12846BDE8F08110B56FF00400FFF787
:100F0000A9FE084800684FF44871B0FBF1F00649AB
:100F100008700846007800EB800040000349088014
:100F200010BD000000000020460000204800002006
:100F30000146114A12884A434FF0E0235A610022C9
:100F40009A611A46126942F001021A6100BF4FF01D
:100F5000E022106900F001021AB100F48032002A88
:100F6000F5D04FF0E022126922F001024FF0E023A9
:100F70001A6100229A617047480000200146114A18
:100F800012784A434FF0E0235A6100229A611A46D0
:100F9000126942F001021A6100BF4FF0E0221069AD
:100FA00000F001021AB100F48032002AF5D04FF0AF
:100FB000E022126922F001024FF0E0231A610022C0
:100FC0009A6170474600002000BF054A128802F06F
:100FD0004002002AF9D0C2B2014B1B1D1A80704793
:100FE0000038014010B5FFF7ADFA7020FFF7FEFAA8
:100FF000FFF766FD0C490870E120FFF7F7FAFFF7ED
:101000005FFD094908700820FFF7F0FAFFF758FD67
:10101000054908700020FFF7E9FAFFF751FD024982
:101020000870FFF7BDFA10BD28000020FFF764FF2D
:10103000FFF745FBFFF7C4FB0020FFF789FB4FF4E8
:10104000E13000F043F9FFF717FB04E000F0EAF8A5
:101050003220FFF76DFFF9E710B50246012000E0EE
:1010600050430B1EA1F10104E1B2F9D110BD000003
:101070007CB5002404E0002063490855601CC4B21C
:10108000062CF8DBFFF75EFA7120FFF7AFFAFFF7E7
:1010900017FD5E490870FFF70DFA5B490870FFF70E
:1010A000A1FDFFF707FA58494870FFF79BFDFFF7CE
:1010B00001FA55498870FFF795FDFFF7FBF9524992
:1010C000C870FFF78FFDFFF7F5F94F490871FFF77B
:1010D00089FDFFF7EFF94C494871FFF74FFDFFF726
:1010E0005FFA4948007800F0680008284ED1464869
:1010F00040784749086044488078096840EA012000
:10110000434908604048C078096840EA01204049E6
:1011100008600846006800090860084600684FF447
:101120007A714843000D3A4908603748C078394918
:1011300008600846007800F00F0008603248007927
:10114000096840EA0120334908602F48407909685E
:1011500040EA01202F490860084600684FF4FA6110
:1011600048438910C1EB10502A490860284800887C
:10117000000A2949087026480078487025480088E8
:10118000000A887023480078C87008E0FF202249D0
:10119000087048708870C87020A0FFF785FE1D4851
:1011A00000686421B0FBF1F5012010210A232A46D2
:1011B000CDE9001020211420FFF7EEF801201023C4
:1011C00017A2202100903420FFF73BF91148006856
:1011D0006421B0FBF1F201FB1205012010210A236A
:1011E0002A46CDE9001020211820FFF7D5F801206C
:1011F00008210A23CDE900100648102102681E20AC
:10120000FFF7CAF87CBD000029000020280000205C
:101210003000002034000020380000206C79790074
:101220002E00000010B50A20FFF782FE00F014F82F
:101230000A20FFF77DFEFFF7D5FE0A20FFF778FEB4
:1012400000F020F85020FFF773FEFFF711FF052094
:10125000FFF76EFE10BD000010B5FFF773F97020A8
:10126000FFF7C4F9FFF72CFC05490870BA20FFF717
:10127000BDF9FFF725FC02490870FFF791F910BD91
:101280002800002010B5FFF75DF97020FFF7AEF9D8
:10129000FFF716FC0C490870AC20FFF7A7F9FFF721
:1012A0000FFC094908703320FFF7A0F9FFF708FC8D
:1012B000054908700020FFF799F9FFF701FC024982
:1012C0000870FFF76DF910BD2800002010B586B03A
:1012D0000446012144F20400FFF778FB4FF400704C
:1012E000ADF8140003208DF8160018208DF81700B3
:1012F00005A91C48FEF739FF4FF48060ADF81400D3
:1013000004208DF8170005A91648FEF72EFF2520AA
:101310008DF8000003208DF801008DF802000120F7
:101320008DF803006846FFF7D1F901940020ADF86D
:101330000800ADF80A00ADF80C00ADF810000C2064
:10134000ADF80E0001A90848FFF73AFD012240F26E
:1013500025510548FFF70EFD01210348FFF7D4FC96
:1013600006B010BD00080140003801400000000038
:1013700000000000101010100010000028282800A5
:101380000000000028287C287C282800103C5038C9
:1013900014781000004C2C10086060003048502079
:1013A00054483400301020000000000008102020B5
:1013B00020100800201008080810200000105438E1
:1013C000541000000010107C1010000000000000FD
:1013D00000180810000000007C0000000000000061
:1013E00000303000000408102040000038444C5405
:1013F00064443800103010101010380038440408CD
:1014000010207C007C081008044438000818284884
:101410007C0808007C407804044438001820407898
:10142000444438007C04081020202000384444380C
:10143000444438003844443C040830000030300054
:101440003030000000303000301020000810204004
:101450002010080000007C007C0000002010080420
:1014600008102000384404081000100038440434E8
:101470005C443800102844447C4444007844447858
:101480004444780038444040404438007048444464
:10149000444870007C40407840407C007C4040786C
:1014A000404040003844405C44443C004444447C58
:1014B0004444440038101010101038001C0808086C
:1014C0000848300044485060504844004040404084
:1014D00040407C00446C54544444440044446454AC
:1014E0004C444400384444444444380078444478EC
:1014F00040404000384444445448340078444478E0
:10150000504844003C404038040478007C101010DF
:1015100010101000444444444444380044444444BB
:10152000442810004444445454542800444428108F
:101530002844440044444428101010007C0408103F
:1015400020407C003820202020203800004020103F
:10155000080400003808080808083800102844006B
:10156000000000000000000000007C0020100800C7
:1015700000000000000038043C443C004040586437
:101580004444780000003840404438000404344C9F
:1015900044443C00000038447C403800382420702B
:1015A0002020200000003C44443C04384040586463
:1015B000444444001000301010103800080018088F
:1015C0000808483040404850605048003010101023
:1015D000101038000000685454444400000058645F
:1015E0004444440000003844444438000000586437
:1015F000645840400000344C4C34040400005864EB
:101600004040400000003C4038047800202070201A
:101610002024180000004444444C3400000044449A
:10162000442810000000444454542800000044287A
:101630001028440000004444443C043800007C0866
:1016400010207C00102020402020100000101010DE
:1016500010101000201010081010200000000020B2
:10166000540800000000000000000000000000001E
:1016700000000000000000181818181818180000C2
:101680001818000000123624480000000000000076
:1016900000000000000000242424FE484848FE48C2
:1016A0004848000000001038545450301C141454A2
:1016B0005438101000000044A4A8A8A8541A2A2ADC
:1016C0002A44000000000030484848506EA4948826
:1016D0008976000000606020C0000000000000006B
:1016E000000000000002040808101010101010087C
:1016F000080402000040201010080808080808101C
:1017000010204000000000001010D63838D610100D
:10171000000000000000000010101010FE1010105B
:1017200010000000000000000000000000000000A9
:10173000606020C000000000000000007F0000008A
:101740000000000000000000000000000000000099
:10175000606000000000010202040408081010206C
:1017600020404000000000182442424242424242CF
:10177000241800000000001070101010101010103D
:10178000107C00000000003C42424204040810208B
:10179000427E00000000003C424204180402024263
:1017A00044380000000000040C14242444447E0447
:1017B000041E00000000007E4040405864020242C7
:1017C000443800000000001C24404058644242425B
:1017D000241800000000007E424408081010101079
:1017E000101000000000003C4242422418244242F3
:1017F000423C00000000001824424242261A020225
:10180000243800000000000000001818000000004C
:101810001818000000000000000018180000001850
:1018200018083000000000020408102040201008B2
:1018300004020000000000000000FE000000FE00A6
:1018400000000000000000402010080402040810FE
:10185000204000000000003C4242620204080800F0
:101860001818000000000038445AAAAAAAAAB442D4
:10187000443800000000001010182828243C44427E
:1018800042E70000000000F84444447844424242E9
:1018900044F800000000003E424280808080804288
:1018A00044380000000000F84442424242424242B2
:1018B00044F80000000000FE424848784848404292
:1018C00042FE0000000000FE424848784848404080
:1018D00040E000000000003C44448080808E84444E
:1018E00044380000000000E7424242427E42424249
:1018F00042E700000000007C1010101010101010C3
:10190000107C00000000003E0808080808080808CD
:10191000080888F0000000EE4448507050484844E1
:1019200044EE0000000000E04040404040404040A5
:1019300042FE0000000000EE6C6C6C6C5454545479
:1019400054D60000000000C7626252524A4A4A461A
:1019500046E2000000000038448282828282828255
:1019600044380000000000FC424242427C404040BB
:1019700040E0000000000038448282828282B2CAC5
:101980004C380600000000F8444444784848444479
:1019900042E300000000003E4242402018040242A0
:1019A000427C0000000000FE921010101010101079
:1019B00010380000000000E74242424242424242E8
:1019C000423C0000000000E742424424242828183A
:1019D00010100000000000D692929292AAAA6C44C5
:1019E00044440000000000E742242418181824246E
:1019F00042E70000000000EE4444282810101010B8
:101A0000103800000000007E8404080810202042E6
:101A100042FC0000001E10101010101010101010CA
:101A200010101E0000004040202010100804040286
:101A300002020101007808080808080808080808D8
:101A400008087800000814220000000000000000D0
:101A50000000000000000000000000000000000086
:101A6000000000FF00601000000000000000000007
:101A700000000000000000000000003C421E224266
:101A8000423F0000000000C04040405864424242D3
:101A900064580000000000000000001C224040408C
:101AA000221C0000000000060202021E22424242E6
:101AB000261B0000000000000000003C427E404069
:101AC000423C00000000000F1110107E101010109A
:101AD000107C0000000000000000003E444438403C
:101AE0003C42423C000000C04040405C62424242F6
:101AF00042E70000000000303000007010101010AD
:101B0000107C00000000000C0C00001C0404040405
:101B100004044478000000C04040404E48506848EB
:101B200044EE000000000070101010101010101093
:101B3000107C000000000000000000F649494949FF
:101B400049ED000000000000000000DC624242425B
:101B500042E70000000000000000003C4242424218
:101B6000423C000000000000000000D864424242F5
:101B7000645840E0000000000000001E2242424283
:101B8000261A020700000000000000EE322020208C
:101B900020F80000000000000000003E42403C022F
:101BA000427C0000000000000010107C101010109B
:101BB000100C000000000000000000C6424242423B
:101BC000463B000000000000000000E742242428FB
:101BD0001010000000000000000000D79292AAAA96
:101BE00044440000000000000000006E2418181893
:101BF0002476000000000000000000E742242428B2
:101C0000181010E0000000000000007E44081010D2
:101C1000227E0000000304040404040804040404F5
:101C20000404030008080808080808080808080849
:101C3000080808080060101010101008101010108C
:101C40001010600000000000000020520C00000096
:101C500000000000C8AB0100010002800440082021
:101C600010102FE8C106010001001FF00100010063
:101C700001007FFC0000B6AF004000407C40004007
:101C800001FC0044FE4420442044208448844484D1
:101C9000FD04450402280410B5E70100010001001D
:101CA0003FF82108210821083FF8210821082108D0
:101CB0003FF8210A0102010200FED7D300007FF89D
:101CC00000100020004001800100FFFE0100010023
:101CD000010001000100010005000200BCBC102051
:101CE0001020102013FEFC201020102015FC18845A
:101CF0003088D04810501020105051882606CAF560
:101D000001000120011001107FFC03800540054007
:101D10000920111021084104810201000100010085
:101D2000CFB500F83F000400082010403F800100BC
:101D3000061018087FFC0104092011102108450431
:101D40000200CDB310401020202023FE4840F88828
:101D5000110423FE4092F890409000901912E11275
:101D6000420E0400C9E8000021F01110111001100A
:101D7000020EF40013F811081110109014A018406E
:101D800010A003180C06D6C37FFC44447FFC01005E
:101D90007FFC01001FF010101FF010101FF010103A
:101DA0001FF01010FFFE0000D2F4020001003FF807
:101DB000000008200440FFFE00001FF0101010106B
:101DC0001FF0101010101FF01010C1BF00001FF006
:101DD00010101FF01010FFFE00001FF011101FF078
:101DE00011101FF001001FF001007FFCD1D5100081
:101DF00008FE7F102220147C7F44445448545254DF
:101E00004454485451544228442488423082C9AB37
:101E1000080008001FE020204040BFF821082108EA
:101E200021083FF820002002200220021FFE0000AF
:101E3000CDF800007FFC40044004421452944A5400
:101E4000442444244A544A545294610440044014A3
:101E50004008C2E71080108020F821084B10FCA039
:101E6000104020A04118FA0645F801081908E108B9
:101E700041F80108C0EE010001807FFC010005402F
:101E80000930310EC1040FE0004001887FFC0100E1
:101E9000010005000200B9FE0040004000A078A04B
:101EA000491049084A0E4DF4480048007BF84A089A
:101EB0000208020803F80208C0F204400444FFFECE
:101EC00004400608780808480848FF4808481C48A5
:101ED0001A482A48480888280810CCD810401040D2
:101EE000504853FC7C40504497FE18103010D7FEE9
:101EF000111010901090101010501020C1E8000028
:101F00000000000002009FC042003FE00880144033
:101F100007802880550082000D8030600000C4CF0B
:101F20000000000000000400FFE004007FC05140FA
:101F30004A405F4044407FC04440444041C00000AC
:101F4000D5F00000000000007FC00400FFE0842006
:101F500075C000007FE040007FE0524051809860F3
:101F60000000BBB60000000000000200FA000BE019
:101F70008C20584051002100210052805280844022
:101F800008200000D3AD000000000000840059E0EC
:101F900011201120D120512055205920516041009D
:101FA0004100BFE00000C0B40000000000000400D9
:101FB00004007FC0040024801500FFE00E0015001F
:101FC0002480C46004000000B5BD000000000000D3
:101FD0000020FE2020A044A0FEA012A010A0FEA081
:101FE00010A010201E20E0600000D6D800000000E5
:101FF000000003C07C000400FFE044407FC0444078
:102000007FC004007FC00400FFE00000C7EC0000B8
:1020100000000000040002007FE040004200420097
:102020005FE0420045004500488090600000BDBB75
:1020300000000000000008000400FFE000001100A4
:10204000208051400A0004000A003180C060000076
:10205000CDA80000000000009F80448003001FC046
:10206000D2405FC052405FC0524052C04000BFE00B
:102070000000B4F3000000000000040004000400AD
:102080000400FFE004000A000A0011001100208093
:10209000C0600000D1A7000000000000484024807C
:1020A000FFE080203F8001000200FFE00400040008
:1020B00004001C000000CEEF00000000000024001F
:1020C0002400A7E0FAA0A2A022A034A0E5202920A5
:1020D0002220242028C00000C1AA00000000000027
:1020E0000440FA80500057C0710051007FE0510059
:1020F0005A80F280144018200000CDF80000000043
:102100000000FFE080208020C460AAA091209120E0
:10211000AAA0C4608020802080E00000320000007F
:1021200000000000000060009000900020002000EF
:10213000400040008000F00000000000000030007F
:10214000000000000000000060009000900090007F
:1021500090009000900090006000000000000000DF
:1021600035000000000000000000F000800080004A
:102170008000E000100010009000600000000000EF
:102180000000CAB50000000000000400FFE080204D
:1021900012000A0022001200FFE004000980304013
:1021A000C0200000D1B50000000000004820292018
:1021B00009200920C92049204920492059206920A7
:1021C000512020200000CAD20000000000000800BA
:1021D0000400FFE08020BFA0080011003F80040041
:1021E0007FC00400FFE000002100000000000000AC
:1021F00000003000300030003000300000000000EF
:102200003000300000000000000048000000000026
:10221000000000009000900090009000F0009000FE
:102220009000900090000000000000006500000099
:102230000000000000000000000000004000A000BE
:10224000E0008000A00040000000000000006C00E2
:10225000000000000000000080008000800080007E
:1022600080008000800080008000000000000000EE
:102270006F000000000000000000000000000000EF
:102280004000A000A000A000A0004000000000004E
:102290000000C8AB00000000000000380000300063
:1022A00000680000440000C2000181000300C00675
:1022B00000700FFFFE1018086018000018000018CA
:1022C0000000186003FF80001800001800001800CC
:1022D0000018081FFFFC000000000000B6AF00005F
:1022E000000000000001800001000061003F81004B
:1022F00000010000010C0007FC00310C3FC10C067E
:10230000010C04010C0C810808430810620810221B
:10231000082FF4083814080008080011180020F8E5
:10232000004030000000B5E7000000000000001889
:10233000000010000010000010000FFFF008102037
:102340000810200810200810200FFFE008102008B7
:1023500010200810200810200FFFE00810000010C7
:102360000800100800100400180C000FF80000000E
:10237000D7D30000000000000000200FFFF0000095
:102380006000008000030000140000180000180026
:1023900000180C7FFFFE0018000018000018000055
:1023A000180000180000180000180000180000189D
:1023B0000000F800003000000000BCBC0000000479
:1023C000000007018006010006010006010006C1A9
:1023D0000C3F3FF006010006010006010006FFF871
:1023E0000708103E08302604200604600602400656
:1023F00002C0060180060380060C601E103E0CE041
:102400000C000000CAF5000000000000001C0000E5
:1024100019800018E000186000182800181C3FFF01
:10242000E0003C00007C00005A0000DA0000990047
:102430000119800318C006186004183808181E30E7
:102440001808401800001800001800000000C8AB71
:1024500000000000000000000003000000038000F6
:102460000007800000068000000C4000001C2000D7
:10247000001830000030180000600C0000C0070099
:10248000018003C0030002F807FFFF7C0801809071
:1024900030018000400180000001800000018100C7
:1024A0000001838001FFFFC0000180000001800067
:1024B0000001800000018000000180000001801008
:1024C000000180381FFFFFFC00000000000000003A
:1024D000B6AF00000000000000000000080000008F
:1024E0000E0000000C00000C0C003FFE0C00100061
:1024F0000C0000000C0000000C180000FFFC0002A3
:102500000C1800070C183FFF8C1801C00C1801C0F4
:102510000C18018008180300081802101818060883
:102520001818040C101808061018100630102FFB8D
:1025300020103E0360101002C03000008030000107
:102540000C30000203E0000C01E0001000800000ED
:102550000000B5E7000000000000000000030000DC
:1025600000038000000300000003000000030000DF
:102570000003000007FFFFC0060300C0060300C001
:10258000060300C0060300C0060300C0060300C027
:1025900007FFFFC0060300C0060300C0060300C01B
:1025A000060300C0060300C007FFFFC0060300804B
:1025B00006030000000300100003000800030008E9
:1025C000000300180003801C0001FFF80000000059
:1025D00000000000D7D30000000000000000000051
:1025E0000000000000C003FFFFE0000001E0000069
:1025F0000300000006000000180000003000000189
:10260000C0000001C0000001800000018010000136
:1026100080383FFFFFFC00018000000180000001C6
:1026200080000001800000018000000180000001A6
:102630008000000180000001800000018000000196
:10264000800000018000003F8000000700000002C1
:10265000000000000000BCBC000000000000000002
:102660000180080001C00E0001800C0001800C00F8
:1026700001800C0001800C0001980C183FFFFFFC4A
:1026800001800C0001800C0001800C0001800C0016
:10269000018C0C2001B3FFF001C080600F808060CE
:1026A0003D8040C0318040C0018021800180218078
:1026B0000180330001801E0001800C0001801E009B
:1026C000018037000180E3C01F8380F8078E007C03
:1026D0000230000000000000CAF500000000000009
:1026E0000000000100000001C00000018C0000019A
:1026F000870000018380000181800001808000014B
:1027000080303FFFFFF81003C0000007C000000743
:10271000A000000DA000000D90000019900000190D
:10272000980000318C000061860000C187000081A4
:102730008380018181C0030180F00401807C080155
:1027400080381001801060018000000180000001CD
:102750008000000100000000000000007C2700084D
:102760000000002054000000B80E0008D027000828
:1027700054000020CC080000C80E000800A24A0443
:102780000000000000000000010203040607080921
:102790000000000001020304010203040607080907
:1027A0000204060800000000000000000000000015
:1027B0000000000000000000FA060A00000000000F
:1027C00000FF00000000000000000000000000000A
:04000005080000ED02
:00000001FF
